{
  "_format": "hh-sol-artifact-1",
  "contractName": "BerryManager",
  "sourceName": "contracts/core/BerryManager.sol",
  "abi": [
    {
      "inputs": [
        {
          "internalType": "address",
          "name": "_berryAgent",
          "type": "address"
        }
      ],
      "stateMutability": "nonpayable",
      "type": "constructor"
    },
    {
      "inputs": [
        {
          "internalType": "address",
          "name": "owner",
          "type": "address"
        }
      ],
      "name": "OwnableInvalidOwner",
      "type": "error"
    },
    {
      "inputs": [
        {
          "internalType": "address",
          "name": "account",
          "type": "address"
        }
      ],
      "name": "OwnableUnauthorizedAccount",
      "type": "error"
    },
    {
      "anonymous": false,
      "inputs": [
        {
          "indexed": true,
          "internalType": "uint256",
          "name": "batchId",
          "type": "uint256"
        },
        {
          "indexed": false,
          "internalType": "string",
          "name": "recommendation",
          "type": "string"
        }
      ],
      "name": "AgentRecommendationMade",
      "type": "event"
    },
    {
      "anonymous": false,
      "inputs": [
        {
          "indexed": true,
          "internalType": "address",
          "name": "previousOwner",
          "type": "address"
        },
        {
          "indexed": true,
          "internalType": "address",
          "name": "newOwner",
          "type": "address"
        }
      ],
      "name": "OwnershipTransferred",
      "type": "event"
    },
    {
      "anonymous": false,
      "inputs": [
        {
          "indexed": true,
          "internalType": "address",
          "name": "supplier",
          "type": "address"
        },
        {
          "indexed": false,
          "internalType": "uint256",
          "name": "newReputation",
          "type": "uint256"
        }
      ],
      "name": "ReputationUpdated",
      "type": "event"
    },
    {
      "anonymous": false,
      "inputs": [
        {
          "indexed": true,
          "internalType": "address",
          "name": "supplier",
          "type": "address"
        },
        {
          "indexed": false,
          "internalType": "enum IBerryManager.SupplierAction",
          "name": "action",
          "type": "uint8"
        }
      ],
      "name": "SupplierActionTaken",
      "type": "event"
    },
    {
      "anonymous": false,
      "inputs": [
        {
          "indexed": true,
          "internalType": "address",
          "name": "supplier",
          "type": "address"
        }
      ],
      "name": "SupplierRegistered",
      "type": "event"
    },
    {
      "inputs": [],
      "name": "INITIAL_REPUTATION",
      "outputs": [
        {
          "internalType": "uint256",
          "name": "",
          "type": "uint256"
        }
      ],
      "stateMutability": "view",
      "type": "function"
    },
    {
      "inputs": [],
      "name": "MAX_REPUTATION",
      "outputs": [
        {
          "internalType": "uint256",
          "name": "",
          "type": "uint256"
        }
      ],
      "stateMutability": "view",
      "type": "function"
    },
    {
      "inputs": [],
      "name": "MIN_REPUTATION",
      "outputs": [
        {
          "internalType": "uint256",
          "name": "",
          "type": "uint256"
        }
      ],
      "stateMutability": "view",
      "type": "function"
    },
    {
      "inputs": [],
      "name": "berryAgent",
      "outputs": [
        {
          "internalType": "contract IBerryTempAgent",
          "name": "",
          "type": "address"
        }
      ],
      "stateMutability": "view",
      "type": "function"
    },
    {
      "inputs": [
        {
          "internalType": "address",
          "name": "supplier",
          "type": "address"
        }
      ],
      "name": "getSupplierDetails",
      "outputs": [
        {
          "components": [
            {
              "internalType": "address",
              "name": "account",
              "type": "address"
            },
            {
              "internalType": "bool",
              "name": "isRegistered",
              "type": "bool"
            },
            {
              "internalType": "uint256",
              "name": "reputation",
              "type": "uint256"
            },
            {
              "internalType": "uint256",
              "name": "totalBatches",
              "type": "uint256"
            },
            {
              "internalType": "uint256",
              "name": "successfulBatches",
              "type": "uint256"
            },
            {
              "internalType": "uint256",
              "name": "lastActionTime",
              "type": "uint256"
            }
          ],
          "internalType": "struct IBerryManager.Supplier",
          "name": "",
          "type": "tuple"
        }
      ],
      "stateMutability": "view",
      "type": "function"
    },
    {
      "inputs": [
        {
          "internalType": "address",
          "name": "supplier",
          "type": "address"
        }
      ],
      "name": "getSupplierRecommendations",
      "outputs": [
        {
          "components": [
            {
              "internalType": "uint256",
              "name": "timestamp",
              "type": "uint256"
            },
            {
              "internalType": "uint256",
              "name": "batchId",
              "type": "uint256"
            },
            {
              "internalType": "uint256",
              "name": "recommendedAction",
              "type": "uint256"
            },
            {
              "internalType": "string",
              "name": "actionDescription",
              "type": "string"
            },
            {
              "internalType": "bool",
              "name": "isImplemented",
              "type": "bool"
            }
          ],
          "internalType": "struct IBerryManager.AgentRecommendation[]",
          "name": "",
          "type": "tuple[]"
        }
      ],
      "stateMutability": "view",
      "type": "function"
    },
    {
      "inputs": [],
      "name": "owner",
      "outputs": [
        {
          "internalType": "address",
          "name": "",
          "type": "address"
        }
      ],
      "stateMutability": "view",
      "type": "function"
    },
    {
      "inputs": [
        {
          "internalType": "uint256",
          "name": "batchId",
          "type": "uint256"
        }
      ],
      "name": "processAgentRecommendation",
      "outputs": [],
      "stateMutability": "nonpayable",
      "type": "function"
    },
    {
      "inputs": [],
      "name": "registerSupplier",
      "outputs": [],
      "stateMutability": "nonpayable",
      "type": "function"
    },
    {
      "inputs": [],
      "name": "renounceOwnership",
      "outputs": [],
      "stateMutability": "nonpayable",
      "type": "function"
    },
    {
      "inputs": [
        {
          "internalType": "address",
          "name": "",
          "type": "address"
        },
        {
          "internalType": "uint256",
          "name": "",
          "type": "uint256"
        }
      ],
      "name": "supplierRecommendations",
      "outputs": [
        {
          "internalType": "uint256",
          "name": "timestamp",
          "type": "uint256"
        },
        {
          "internalType": "uint256",
          "name": "batchId",
          "type": "uint256"
        },
        {
          "internalType": "uint256",
          "name": "recommendedAction",
          "type": "uint256"
        },
        {
          "internalType": "string",
          "name": "actionDescription",
          "type": "string"
        },
        {
          "internalType": "bool",
          "name": "isImplemented",
          "type": "bool"
        }
      ],
      "stateMutability": "view",
      "type": "function"
    },
    {
      "inputs": [
        {
          "internalType": "address",
          "name": "",
          "type": "address"
        }
      ],
      "name": "suppliers",
      "outputs": [
        {
          "internalType": "address",
          "name": "account",
          "type": "address"
        },
        {
          "internalType": "bool",
          "name": "isRegistered",
          "type": "bool"
        },
        {
          "internalType": "uint256",
          "name": "reputation",
          "type": "uint256"
        },
        {
          "internalType": "uint256",
          "name": "totalBatches",
          "type": "uint256"
        },
        {
          "internalType": "uint256",
          "name": "successfulBatches",
          "type": "uint256"
        },
        {
          "internalType": "uint256",
          "name": "lastActionTime",
          "type": "uint256"
        }
      ],
      "stateMutability": "view",
      "type": "function"
    },
    {
      "inputs": [
        {
          "internalType": "address",
          "name": "newOwner",
          "type": "address"
        }
      ],
      "name": "transferOwnership",
      "outputs": [],
      "stateMutability": "nonpayable",
      "type": "function"
    }
  ],
  "bytecode": "0x608060405234801561001057600080fd5b506040516113a53803806113a583398101604081905261002f916100d4565b338061005557604051631e4fbdf760e01b81526000600482015260240160405180910390fd5b61005e81610084565b50600180546001600160a01b0319166001600160a01b0392909216919091179055610104565b600080546001600160a01b038381166001600160a01b0319831681178455604051919092169283917f8be0079c531659141344cd1fd0a4f28419497f9722a3daafe3b4186f6b6457e09190a35050565b6000602082840312156100e657600080fd5b81516001600160a01b03811681146100fd57600080fd5b9392505050565b611292806101136000396000f3fe608060405234801561001057600080fd5b50600436106100cf5760003560e01c8063715018a61161008c578063d213c0f211610066578063d213c0f21461025c578063d9a128e514610264578063f2fde38b1461026c578063fd24128e1461027f57600080fd5b8063715018a61461023b5780637b057258146102435780638da5cb5b1461024b57600080fd5b8063038da6c4146100d45780631146c63e146100e957806316dc15fe1461011957806321bb20e9146101a05780634e625983146101c0578063697c604514610225575b600080fd5b6100e76100e2366004610ba3565b6102a3565b005b6001546100fc906001600160a01b031681565b6040516001600160a01b0390911681526020015b60405180910390f35b610169610127366004610bd8565b6002602081905260009182526040909120805460018201549282015460038301546004909301546001600160a01b03831694600160a01b90930460ff16939086565b604080516001600160a01b0390971687529415156020870152938501929092526060840152608083015260a082015260c001610110565b6101b36101ae366004610bd8565b610512565b6040516101109190610c43565b6101d36101ce366004610bd8565b610649565b604051610110919081516001600160a01b0316815260208083015115159082015260408083015190820152606080830151908201526080808301519082015260a0918201519181019190915260c00190565b61022d600081565b604051908152602001610110565b6100e76106f8565b61022d605081565b6000546001600160a01b03166100fc565b61022d606481565b6100e761070c565b6100e761027a366004610bd8565b610824565b61029261028d366004610ce0565b61085f565b604051610110959493929190610d0a565b33600090815260026020526040902054600160a01b900460ff166102ff5760405162461bcd60e51b815260206004820152600e60248201526d139bdd081c9959da5cdd195c995960921b60448201526064015b60405180910390fd5b6001546040516302751f7360e61b8152600481018390526000916001600160a01b031690639d47dcc090602401600060405180830381865afa158015610349573d6000803e3d6000fd5b505050506040513d6000823e601f3d908101601f191682016040526103719190810190610e62565b600154604051638e6bf35b60e01b8152600481018590529192506000916001600160a01b0390911690638e6bf35b90602401600060405180830381865afa1580156103c0573d6000803e3d6000fd5b505050506040513d6000823e601f3d908101601f191682016040526103e89190810190610f2a565b905080516000036103f857505050565b60008160018351610409919061106e565b8151811061041957610419611081565b6020908102919091018101516040805160a0810182524281528084018881528284015182840190815260608086015190840190815260006080850181905233815260038089529581208054600181810183559183529890912085516005909902019788559251928701929092555160028601555192945092839290918201906104a29082611120565b50608091909101516004909101805460ff191691151591909117905560c08401516104ce90339061093d565b847fbf9c945a193798a513ebad2d02fb07ed32587db0c0d1113473c706232f1a4dd6826060015160405161050291906111df565b60405180910390a2505050505b50565b6001600160a01b0381166000908152600360209081526040808320805482518185028101850190935280835260609492939192909184015b8282101561063e57838290600052602060002090600502016040518060a001604052908160008201548152602001600182015481526020016002820154815260200160038201805461059b90611097565b80601f01602080910402602001604051908101604052809291908181526020018280546105c790611097565b80156106145780601f106105e957610100808354040283529160200191610614565b820191906000526020600020905b8154815290600101906020018083116105f757829003601f168201915b50505091835250506004919091015460ff161515602091820152908252600192909201910161054a565b505050509050919050565b61068d6040518060c0016040528060006001600160a01b03168152602001600015158152602001600081526020016000815260200160008152602001600081525090565b506001600160a01b03908116600090815260026020818152604092839020835160c08101855281549586168152600160a01b90950460ff161515918501919091526001810154928401929092528101546060830152600381015460808301526004015460a082015290565b610700610a39565b61070a6000610a66565b565b33600090815260026020526040902054600160a01b900460ff16156107685760405162461bcd60e51b8152602060048201526012602482015271105b1c9958591e481c9959da5cdd195c995960721b60448201526064016102f6565b6040805160c08101825233808252600160208084018281526050858701908152600060608701818152608088018281524260a08a019081528884526002968790528a842099518a5496511515600160a01b026001600160a81b03199097166001600160a01b039190911617959095178955925195880195909555935192860192909255905160038501555160049093019290925591517fbcffc870b52d3cb785b17c2c7426be70f9181ce49c43cc7b479ebcfac2d7a1c89190a2565b61082c610a39565b6001600160a01b03811661085657604051631e4fbdf760e01b8152600060048201526024016102f6565b61050f81610a66565b6003602052816000526040600020818154811061087b57600080fd5b9060005260206000209060050201600091509150508060000154908060010154908060020154908060030180546108b190611097565b80601f01602080910402602001604051908101604052809291908181526020018280546108dd90611097565b801561092a5780601f106108ff5761010080835404028352916020019161092a565b820191906000526020600020905b81548152906001019060200180831161090d57829003601f168201915b5050506004909301549192505060ff1685565b6001600160a01b03821660009081526002602052604090206001810154605a83106109a95761097d8260010154600561097691906111f2565b6064610ab6565b600183015560038201805490600061099483611205565b91905055506109a4846004610ad0565b6109e0565b60468310156109e0576109cd600a83600101546109c6919061106e565b6000610b94565b82600101819055506109e0846001610ad0565b80826001015414610a3357836001600160a01b03167ffc577563f1b9a0461e24abef1e1fcc0d33d3d881f20b5df6dda59de4aae2c8218360010154604051610a2a91815260200190565b60405180910390a25b50505050565b6000546001600160a01b0316331461070a5760405163118cdaa760e01b81523360048201526024016102f6565b600080546001600160a01b038381166001600160a01b0319831681178455604051919092169283917f8be0079c531659141344cd1fd0a4f28419497f9722a3daafe3b4186f6b6457e09190a35050565b6000818310610ac55781610ac7565b825b90505b92915050565b6001600160a01b03821660009081526002602052604090206001826004811115610afc57610afc61121e565b148015610b0d575060328160010154105b15610b1757600291505b6002826004811115610b2b57610b2b61121e565b148015610b3c5750601e8160010154105b15610b4657600391505b4260048201556040516001600160a01b038416907f542ffc0b0b997352978892cd17d3fd6b9b9aa8f25949850649f1cb3e6bb5775890610b87908590611234565b60405180910390a2505050565b6000818311610ac55781610ac7565b600060208284031215610bb557600080fd5b5035919050565b80356001600160a01b0381168114610bd357600080fd5b919050565b600060208284031215610bea57600080fd5b610ac782610bbc565b60005b83811015610c0e578181015183820152602001610bf6565b50506000910152565b60008151808452610c2f816020860160208601610bf3565b601f01601f19169290920160200192915050565b6000602082016020835280845180835260408501915060408160051b86010192506020860160005b82811015610cd457603f198786030184528151805186526020810151602087015260408101516040870152606081015160a06060880152610caf60a0880182610c17565b6080928301511515979092019690965294506020938401939190910190600101610c6b565b50929695505050505050565b60008060408385031215610cf357600080fd5b610cfc83610bbc565b946020939093013593505050565b85815284602082015283604082015260a060608201526000610d2f60a0830185610c17565b905082151560808301529695505050505050565b634e487b7160e01b600052604160045260246000fd5b604051610100810167ffffffffffffffff81118282101715610d7d57610d7d610d43565b60405290565b6040516080810167ffffffffffffffff81118282101715610d7d57610d7d610d43565b604051601f8201601f1916810167ffffffffffffffff81118282101715610dcf57610dcf610d43565b604052919050565b600082601f830112610de857600080fd5b815167ffffffffffffffff811115610e0257610e02610d43565b610e15601f8201601f1916602001610da6565b818152846020838601011115610e2a57600080fd5b610e3b826020830160208701610bf3565b949350505050565b80518015158114610bd357600080fd5b805160048110610bd357600080fd5b600060208284031215610e7457600080fd5b815167ffffffffffffffff811115610e8b57600080fd5b82016101008185031215610e9e57600080fd5b610ea6610d59565b81518152602082015167ffffffffffffffff811115610ec457600080fd5b610ed086828501610dd7565b6020830152506040828101519082015260608083015190820152610ef660808301610e43565b6080820152610f0760a08301610e53565b60a082015260c0828101519082015260e091820151918101919091529392505050565b600060208284031215610f3c57600080fd5b815167ffffffffffffffff811115610f5357600080fd5b8201601f81018413610f6457600080fd5b805167ffffffffffffffff811115610f7e57610f7e610d43565b8060051b610f8e60208201610da6565b91825260208184018101929081019087841115610faa57600080fd5b6020850192505b8383101561104d57825167ffffffffffffffff811115610fd057600080fd5b85016080818a03601f19011215610fe657600080fd5b610fee610d83565b602082810151825260408084015191830191909152606083015190820152608082015167ffffffffffffffff81111561102657600080fd5b6110358b602083860101610dd7565b60608301525083525060209283019290910190610fb1565b979650505050505050565b634e487b7160e01b600052601160045260246000fd5b81810381811115610aca57610aca611058565b634e487b7160e01b600052603260045260246000fd5b600181811c908216806110ab57607f821691505b6020821081036110cb57634e487b7160e01b600052602260045260246000fd5b50919050565b601f82111561111b57806000526020600020601f840160051c810160208510156110f85750805b601f840160051c820191505b818110156111185760008155600101611104565b50505b505050565b815167ffffffffffffffff81111561113a5761113a610d43565b61114e816111488454611097565b846110d1565b6020601f821160018114611182576000831561116a5750848201515b600019600385901b1c1916600184901b178455611118565b600084815260208120601f198516915b828110156111b25787850151825560209485019460019092019101611192565b50848210156111d05786840151600019600387901b60f8161c191681555b50505050600190811b01905550565b602081526000610ac76020830184610c17565b80820180821115610aca57610aca611058565b60006001820161121757611217611058565b5060010190565b634e487b7160e01b600052602160045260246000fd5b602081016005831061125657634e487b7160e01b600052602160045260246000fd5b9190529056fea2646970667358221220c9b9d95b685224a9cd97714dfb55621468e2a59c6e76a16e763c039feb25030a64736f6c634300081c0033",
  "linkReferences": {},
  "deployedLinkReferences": {}
}