{
  "_format": "hh-sol-artifact-1",
  "contractName": "BerryTempAgent",
  "sourceName": "contracts/core/BerryTempAgent.sol",
  "abi": [
    {
      "inputs": [],
      "stateMutability": "nonpayable",
      "type": "constructor"
    },
    {
      "inputs": [
        {
          "internalType": "address",
          "name": "owner",
          "type": "address"
        }
      ],
      "name": "OwnableInvalidOwner",
      "type": "error"
    },
    {
      "inputs": [
        {
          "internalType": "address",
          "name": "account",
          "type": "address"
        }
      ],
      "name": "OwnableUnauthorizedAccount",
      "type": "error"
    },
    {
      "anonymous": false,
      "inputs": [
        {
          "indexed": true,
          "internalType": "uint256",
          "name": "batchId",
          "type": "uint256"
        },
        {
          "indexed": false,
          "internalType": "string",
          "name": "alertMessage",
          "type": "string"
        },
        {
          "indexed": false,
          "internalType": "enum IBerryTempAgent.AgentAction",
          "name": "action",
          "type": "uint8"
        }
      ],
      "name": "AgentAlert",
      "type": "event"
    },
    {
      "anonymous": false,
      "inputs": [
        {
          "indexed": true,
          "internalType": "uint256",
          "name": "batchId",
          "type": "uint256"
        },
        {
          "indexed": false,
          "internalType": "string",
          "name": "berryType",
          "type": "string"
        }
      ],
      "name": "BatchCreated",
      "type": "event"
    },
    {
      "anonymous": false,
      "inputs": [
        {
          "indexed": true,
          "internalType": "address",
          "name": "previousOwner",
          "type": "address"
        },
        {
          "indexed": true,
          "internalType": "address",
          "name": "newOwner",
          "type": "address"
        }
      ],
      "name": "OwnershipTransferred",
      "type": "event"
    },
    {
      "anonymous": false,
      "inputs": [
        {
          "indexed": true,
          "internalType": "uint256",
          "name": "batchId",
          "type": "uint256"
        },
        {
          "indexed": false,
          "internalType": "uint256",
          "name": "newScore",
          "type": "uint256"
        },
        {
          "indexed": false,
          "internalType": "uint256",
          "name": "predictedShelfLife",
          "type": "uint256"
        }
      ],
      "name": "QualityUpdated",
      "type": "event"
    },
    {
      "anonymous": false,
      "inputs": [
        {
          "indexed": true,
          "internalType": "uint256",
          "name": "batchId",
          "type": "uint256"
        },
        {
          "indexed": false,
          "internalType": "int256",
          "name": "temperature",
          "type": "int256"
        },
        {
          "indexed": false,
          "internalType": "bool",
          "name": "isBreached",
          "type": "bool"
        }
      ],
      "name": "TemperatureRecorded",
      "type": "event"
    },
    {
      "inputs": [],
      "name": "BREACH_PENALTY",
      "outputs": [
        {
          "internalType": "uint256",
          "name": "",
          "type": "uint256"
        }
      ],
      "stateMutability": "view",
      "type": "function"
    },
    {
      "inputs": [],
      "name": "MAX_TEMP",
      "outputs": [
        {
          "internalType": "int256",
          "name": "",
          "type": "int256"
        }
      ],
      "stateMutability": "view",
      "type": "function"
    },
    {
      "inputs": [],
      "name": "MIN_TEMP",
      "outputs": [
        {
          "internalType": "int256",
          "name": "",
          "type": "int256"
        }
      ],
      "stateMutability": "view",
      "type": "function"
    },
    {
      "inputs": [],
      "name": "OPTIMAL_TEMP",
      "outputs": [
        {
          "internalType": "int256",
          "name": "",
          "type": "int256"
        }
      ],
      "stateMutability": "view",
      "type": "function"
    },
    {
      "inputs": [],
      "name": "SHELF_LIFE_BASE",
      "outputs": [
        {
          "internalType": "uint256",
          "name": "",
          "type": "uint256"
        }
      ],
      "stateMutability": "view",
      "type": "function"
    },
    {
      "inputs": [
        {
          "internalType": "uint256",
          "name": "",
          "type": "uint256"
        },
        {
          "internalType": "uint256",
          "name": "",
          "type": "uint256"
        }
      ],
      "name": "agentPredictions",
      "outputs": [
        {
          "internalType": "uint256",
          "name": "timestamp",
          "type": "uint256"
        },
        {
          "internalType": "uint256",
          "name": "predictedQuality",
          "type": "uint256"
        },
        {
          "internalType": "uint256",
          "name": "recommendedAction",
          "type": "uint256"
        },
        {
          "internalType": "string",
          "name": "actionDescription",
          "type": "string"
        }
      ],
      "stateMutability": "view",
      "type": "function"
    },
    {
      "inputs": [],
      "name": "batchCount",
      "outputs": [
        {
          "internalType": "uint256",
          "name": "",
          "type": "uint256"
        }
      ],
      "stateMutability": "view",
      "type": "function"
    },
    {
      "inputs": [
        {
          "internalType": "uint256",
          "name": "",
          "type": "uint256"
        }
      ],
      "name": "berryBatches",
      "outputs": [
        {
          "internalType": "uint256",
          "name": "batchId",
          "type": "uint256"
        },
        {
          "internalType": "string",
          "name": "berryType",
          "type": "string"
        },
        {
          "internalType": "uint256",
          "name": "startTime",
          "type": "uint256"
        },
        {
          "internalType": "uint256",
          "name": "endTime",
          "type": "uint256"
        },
        {
          "internalType": "bool",
          "name": "isActive",
          "type": "bool"
        },
        {
          "internalType": "enum IBerryTempAgent.BatchStatus",
          "name": "status",
          "type": "uint8"
        },
        {
          "internalType": "uint256",
          "name": "qualityScore",
          "type": "uint256"
        },
        {
          "internalType": "uint256",
          "name": "predictedShelfLife",
          "type": "uint256"
        }
      ],
      "stateMutability": "view",
      "type": "function"
    },
    {
      "inputs": [
        {
          "internalType": "string",
          "name": "berryType",
          "type": "string"
        }
      ],
      "name": "createBatch",
      "outputs": [
        {
          "internalType": "uint256",
          "name": "",
          "type": "uint256"
        }
      ],
      "stateMutability": "nonpayable",
      "type": "function"
    },
    {
      "inputs": [
        {
          "internalType": "uint256",
          "name": "batchId",
          "type": "uint256"
        }
      ],
      "name": "getAgentPredictions",
      "outputs": [
        {
          "components": [
            {
              "internalType": "uint256",
              "name": "timestamp",
              "type": "uint256"
            },
            {
              "internalType": "uint256",
              "name": "predictedQuality",
              "type": "uint256"
            },
            {
              "internalType": "uint256",
              "name": "recommendedAction",
              "type": "uint256"
            },
            {
              "internalType": "string",
              "name": "actionDescription",
              "type": "string"
            }
          ],
          "internalType": "struct IBerryTempAgent.AgentPrediction[]",
          "name": "",
          "type": "tuple[]"
        }
      ],
      "stateMutability": "view",
      "type": "function"
    },
    {
      "inputs": [
        {
          "internalType": "uint256",
          "name": "batchId",
          "type": "uint256"
        }
      ],
      "name": "getBatchDetails",
      "outputs": [
        {
          "components": [
            {
              "internalType": "uint256",
              "name": "batchId",
              "type": "uint256"
            },
            {
              "internalType": "string",
              "name": "berryType",
              "type": "string"
            },
            {
              "internalType": "uint256",
              "name": "startTime",
              "type": "uint256"
            },
            {
              "internalType": "uint256",
              "name": "endTime",
              "type": "uint256"
            },
            {
              "internalType": "bool",
              "name": "isActive",
              "type": "bool"
            },
            {
              "internalType": "enum IBerryTempAgent.BatchStatus",
              "name": "status",
              "type": "uint8"
            },
            {
              "internalType": "uint256",
              "name": "qualityScore",
              "type": "uint256"
            },
            {
              "internalType": "uint256",
              "name": "predictedShelfLife",
              "type": "uint256"
            }
          ],
          "internalType": "struct IBerryTempAgent.BerryBatch",
          "name": "",
          "type": "tuple"
        }
      ],
      "stateMutability": "view",
      "type": "function"
    },
    {
      "inputs": [
        {
          "internalType": "uint256",
          "name": "batchId",
          "type": "uint256"
        }
      ],
      "name": "getTemperatureHistory",
      "outputs": [
        {
          "components": [
            {
              "internalType": "uint256",
              "name": "timestamp",
              "type": "uint256"
            },
            {
              "internalType": "int256",
              "name": "temperature",
              "type": "int256"
            },
            {
              "internalType": "string",
              "name": "location",
              "type": "string"
            },
            {
              "internalType": "bool",
              "name": "isBreached",
              "type": "bool"
            },
            {
              "internalType": "uint256",
              "name": "predictedImpact",
              "type": "uint256"
            }
          ],
          "internalType": "struct IBerryTempAgent.TemperatureReading[]",
          "name": "",
          "type": "tuple[]"
        }
      ],
      "stateMutability": "view",
      "type": "function"
    },
    {
      "inputs": [],
      "name": "owner",
      "outputs": [
        {
          "internalType": "address",
          "name": "",
          "type": "address"
        }
      ],
      "stateMutability": "view",
      "type": "function"
    },
    {
      "inputs": [
        {
          "internalType": "uint256",
          "name": "batchId",
          "type": "uint256"
        },
        {
          "internalType": "int256",
          "name": "temperature",
          "type": "int256"
        },
        {
          "internalType": "string",
          "name": "location",
          "type": "string"
        }
      ],
      "name": "recordTemperature",
      "outputs": [],
      "stateMutability": "nonpayable",
      "type": "function"
    },
    {
      "inputs": [],
      "name": "renounceOwnership",
      "outputs": [],
      "stateMutability": "nonpayable",
      "type": "function"
    },
    {
      "inputs": [
        {
          "internalType": "uint256",
          "name": "",
          "type": "uint256"
        },
        {
          "internalType": "uint256",
          "name": "",
          "type": "uint256"
        }
      ],
      "name": "tempReadings",
      "outputs": [
        {
          "internalType": "uint256",
          "name": "timestamp",
          "type": "uint256"
        },
        {
          "internalType": "int256",
          "name": "temperature",
          "type": "int256"
        },
        {
          "internalType": "string",
          "name": "location",
          "type": "string"
        },
        {
          "internalType": "bool",
          "name": "isBreached",
          "type": "bool"
        },
        {
          "internalType": "uint256",
          "name": "predictedImpact",
          "type": "uint256"
        }
      ],
      "stateMutability": "view",
      "type": "function"
    },
    {
      "inputs": [
        {
          "internalType": "address",
          "name": "newOwner",
          "type": "address"
        }
      ],
      "name": "transferOwnership",
      "outputs": [],
      "stateMutability": "nonpayable",
      "type": "function"
    }
  ],
  "bytecode": "0x6080604052348015600f57600080fd5b503380603557604051631e4fbdf760e01b81526000600482015260240160405180910390fd5b603c816041565b506091565b600080546001600160a01b038381166001600160a01b0319831681178455604051919092169283917f8be0079c531659141344cd1fd0a4f28419497f9722a3daafe3b4186f6b6457e09190a35050565b611847806100a06000396000f3fe608060405234801561001057600080fd5b506004361061010b5760003560e01c80638da5cb5b116100a2578063a136effe11610071578063a136effe14610218578063cb0ce60e1461023b578063e4008e0414610243578063ee3d1ce014610267578063f2fde38b1461026f57600080fd5b80638da5cb5b146101aa5780638e6bf35b146101c557806392f82abd146101e55780639d47dcc0146101f857600080fd5b80635ceb9f43116100de5780635ceb9f431461015e578063638a348c14610185578063715018a61461018d57806373653c741461019757600080fd5b806306f13056146101105780633fbb5a531461012c57806346564e5914610134578063564987451461013e575b600080fd5b61011960045481565b6040519081526020015b60405180910390f35b610119600581565b6101196203f48081565b61015161014c366004611100565b610282565b604051610123919061115f565b61017161016c366004611100565b6103b9565b604051610123989796959493929190611225565b610119600081565b610195610489565b005b6101956101a536600461131e565b61049d565b6000546040516001600160a01b039091168152602001610123565b6101d86101d3366004611100565b6105f1565b604051610123919061136e565b6101196101f33660046113f2565b610708565b61020b610206366004611100565b610855565b604051610123919061142f565b61022b6102263660046114ab565b610982565b60405161012394939291906114cd565b610119600281565b6102566102513660046114ab565b610a57565b6040516101239594939291906114fc565b610119600481565b61019561027d36600461152f565b610b36565b606060026000838152602001908152602001600020805480602002602001604051908101604052809291908181526020016000905b828210156103ae57838290600052602060002090600502016040518060a001604052908160008201548152602001600182015481526020016002820180546102fe90611558565b80601f016020809104026020016040519081016040528092919081815260200182805461032a90611558565b80156103775780601f1061034c57610100808354040283529160200191610377565b820191906000526020600020905b81548152906001019060200180831161035a57829003601f168201915b5050509183525050600382015460ff16151560208083019190915260049092015460409091015290825260019290920191016102b7565b505050509050919050565b6001602081905260009182526040909120805491810180546103da90611558565b80601f016020809104026020016040519081016040528092919081815260200182805461040690611558565b80156104535780601f1061042857610100808354040283529160200191610453565b820191906000526020600020905b81548152906001019060200180831161043657829003601f168201915b5050505060028301546003840154600485015460058601546006909601549495929491935060ff80821693610100909204169188565b610491610b74565b61049b6000610ba1565b565b60008381526001602052604090206004015460ff166104f65760405162461bcd60e51b815260206004820152601060248201526f4261746368206e6f742061637469766560801b60448201526064015b60405180910390fd5b600061050183610bf1565b9050600061050e84610c08565b6040805160a081018252428152602080820188815282840188815287151560608501526080840186905260008b81526002808552958120805460018181018355918352949091208551600590950201938455915191830191909155519394509092839282019061057e90826115e1565b50606082015160038201805460ff191691151591909117905560809091015160049091015560408051868152841515602082015287917fea6b6609831dc2f5e0a173df87111967bc0a7af09a1613627c419e32cd01189a910160405180910390a26105e98682610c45565b505050505050565b606060036000838152602001908152602001600020805480602002602001604051908101604052809291908181526020016000905b828210156103ae578382906000526020600020906004020160405180608001604052908160008201548152602001600182015481526020016002820154815260200160038201805461067790611558565b80601f01602080910402602001604051908101604052809291908181526020018280546106a390611558565b80156106f05780601f106106c5576101008083540402835291602001916106f0565b820191906000526020600020905b8154815290600101906020018083116106d357829003601f168201915b50505050508152505081526020019060010190610626565b600480546000918291908261071c836116b6565b9190505590506040518061010001604052808281526020018481526020014281526020016000815260200160011515815260200160006003811115610763576107636111fb565b815260646020808301919091526203f480604092830152600084815260018083529290208351815590830151909182019061079e90826115e1565b50604082015160028201556060820151600380830191909155608083015160048301805491151560ff1983168117825560a086015193919261ff001990911661ffff1990911617906101009084908111156107fb576107fb6111fb565b021790555060c0820151816005015560e08201518160060155905050807f65d0897ef90523e0e840598aac93f29c40c60164ddb22532dfd3a795157573768460405161084791906116cf565b60405180910390a292915050565b61085d6110a8565b600082815260016020818152604092839020835161010081019094528054845291820180549184019161088f90611558565b80601f01602080910402602001604051908101604052809291908181526020018280546108bb90611558565b80156109085780601f106108dd57610100808354040283529160200191610908565b820191906000526020600020905b8154815290600101906020018083116108eb57829003601f168201915b5050509183525050600282015460208201526003808301546040830152600483015460ff808216151560608501526080909301926101009091041690811115610953576109536111fb565b6003811115610964576109646111fb565b81526005820154602082015260069091015460409091015292915050565b6003602052816000526040600020818154811061099e57600080fd5b9060005260206000209060040201600091509150508060000154908060010154908060020154908060030180546109d490611558565b80601f0160208091040260200160405190810160405280929190818152602001828054610a0090611558565b8015610a4d5780601f10610a2257610100808354040283529160200191610a4d565b820191906000526020600020905b815481529060010190602001808311610a3057829003601f168201915b5050505050905084565b60026020528160005260406000208181548110610a7357600080fd5b906000526020600020906005020160009150915050806000015490806001015490806002018054610aa390611558565b80601f0160208091040260200160405190810160405280929190818152602001828054610acf90611558565b8015610b1c5780601f10610af157610100808354040283529160200191610b1c565b820191906000526020600020905b815481529060010190602001808311610aff57829003601f168201915b505050506003830154600490930154919260ff1691905085565b610b3e610b74565b6001600160a01b038116610b6857604051631e4fbdf760e01b8152600060048201526024016104ed565b610b7181610ba1565b50565b6000546001600160a01b0316331461049b5760405163118cdaa760e01b81523360048201526024016104ed565b600080546001600160a01b038381166001600160a01b0319831681178455604051919092169283917f8be0079c531659141344cd1fd0a4f28419497f9722a3daafe3b4186f6b6457e09190a35050565b60006004821380610c025750600082125b92915050565b60006004821315610c2957610c1e6004836116e2565b610c02906002611709565b6000821215610c3d57610c1e8260006116e2565b506000919050565b6000828152600160205260409020606082015115610ebf576005816005015411610c70576000610c81565b60058160050154610c819190611720565b60058201556000610c9183610f0f565b905080826006015411610ca5576000610cb5565b808260060154610cb59190611720565b82600601819055506000610ddc836040518061010001604052908160008201548152602001600182018054610ce990611558565b80601f0160208091040260200160405190810160405280929190818152602001828054610d1590611558565b8015610d625780601f10610d3757610100808354040283529160200191610d62565b820191906000526020600020905b815481529060010190602001808311610d4557829003601f168201915b5050509183525050600282015460208201526003808301546040830152600483015460ff808216151560608501526080909301926101009091041690811115610dad57610dad6111fb565b6003811115610dbe57610dbe6111fb565b81526020016005820154815260200160068201548152505085610f3c565b90506000610de982610f98565b905060036000878152602001908152602001600020604051806080016040528042815260200186600501548152602001846004811115610e2b57610e2b6111fb565b81526020908101849052825460018181018555600094855293829020835160049092020190815590820151928101929092556040810151600283015560608101519091906003820190610e7e90826115e1565b505050857fad00e37984d67a114872b186cb687e0af0fb26df96b7a1245b26625f6efaead78284604051610eb3929190611733565b60405180910390a25050505b827f6df87362e50fa20831a5485ce586da0b4f59eed1884df222d8b3eed78dc4a4eb82600501548360060154604051610f02929190918252602082015260400190565b60405180910390a2505050565b60008160600151610f2257506000919050565b6080820151610e1090610f359082611709565b9392505050565b6000603c8360c001511015610f5357506004610c02565b60468360c001511015610f6857506002610c02565b60508360c001511015610f7d57506003610c02565b816060015115610f8f57506001610c02565b50600092915050565b60606004826004811115610fae57610fae6111fb565b03610fd2576040518060600160405280602481526020016117cb6024913992915050565b6002826004811115610fe657610fe66111fb565b0361100a576040518060600160405280603881526020016117936038913992915050565b600382600481111561101e5761101e6111fb565b03611042576040518060600160405280602381526020016117ef6023913992915050565b6001826004811115611056576110566111fb565b0361107a576040518060600160405280602d8152602001611766602d913992915050565b5050604080518082019091526012815271139bc81858dd1a5bdb881c995c5d5a5c995960721b602082015290565b60405180610100016040528060008152602001606081526020016000815260200160008152602001600015158152602001600060038111156110ec576110ec6111fb565b815260200160008152602001600081525090565b60006020828403121561111257600080fd5b5035919050565b6000815180845260005b8181101561113f57602081850181015186830182015201611123565b506000602082860101526020601f19601f83011685010191505092915050565b6000602082016020835280845180835260408501915060408160051b86010192506020860160005b828110156111ef57603f1987860301845281518051865260208101516020870152604081015160a060408801526111c160a0880182611119565b6060838101511515908901526080928301519290970191909152506020938401939190910190600101611187565b50929695505050505050565b634e487b7160e01b600052602160045260246000fd5b60048110611221576112216111fb565b9052565b8881526101006020820152600061124061010083018a611119565b9050876040830152866060830152851515608083015261126360a0830186611211565b60c082019390935260e001529695505050505050565b634e487b7160e01b600052604160045260246000fd5b600082601f8301126112a057600080fd5b813567ffffffffffffffff8111156112ba576112ba611279565b604051601f8201601f19908116603f0116810167ffffffffffffffff811182821017156112e9576112e9611279565b60405281815283820160200185101561130157600080fd5b816020850160208301376000918101602001919091529392505050565b60008060006060848603121561133357600080fd5b8335925060208401359150604084013567ffffffffffffffff81111561135857600080fd5b6113648682870161128f565b9150509250925092565b6000602082016020835280845180835260408501915060408160051b86010192506020860160005b828110156111ef57603f19878603018452815180518652602081015160208701526040810151604087015260608101519050608060608701526113dc6080870182611119565b9550506020938401939190910190600101611396565b60006020828403121561140457600080fd5b813567ffffffffffffffff81111561141b57600080fd5b6114278482850161128f565b949350505050565b6020815281516020820152600060208301516101006040840152611457610120840182611119565b905060408401516060840152606084015160808401526080840151151560a084015260a084015161148b60c0850182611211565b5060c084015160e084015260e08401516101008401528091505092915050565b600080604083850312156114be57600080fd5b50508035926020909101359150565b8481528360208201528260408201526080606082015260006114f26080830184611119565b9695505050505050565b85815284602082015260a06040820152600061151b60a0830186611119565b931515606083015250608001529392505050565b60006020828403121561154157600080fd5b81356001600160a01b0381168114610f3557600080fd5b600181811c9082168061156c57607f821691505b60208210810361158c57634e487b7160e01b600052602260045260246000fd5b50919050565b601f8211156115dc57806000526020600020601f840160051c810160208510156115b95750805b601f840160051c820191505b818110156115d957600081556001016115c5565b50505b505050565b815167ffffffffffffffff8111156115fb576115fb611279565b61160f816116098454611558565b84611592565b6020601f821160018114611643576000831561162b5750848201515b600019600385901b1c1916600184901b1784556115d9565b600084815260208120601f198516915b828110156116735787850151825560209485019460019092019101611653565b50848210156116915786840151600019600387901b60f8161c191681555b50505050600190811b01905550565b634e487b7160e01b600052601160045260246000fd5b6000600182016116c8576116c86116a0565b5060010190565b602081526000610f356020830184611119565b8181036000831280158383131683831282161715611702576117026116a0565b5092915050565b8082028115828204841417610c0257610c026116a0565b81810381811115610c0257610c026116a0565b6040815260006117466040830185611119565b905060058310611758576117586111fb565b826020830152939250505056fe54656d706572617475726520627265616368206465746563746564202d204d6f6e69746f7220636c6f73656c795369676e69666963616e74207175616c69747920696d70616374202d205265726f75746520746f206e656172657374206c6f636174696f6e437269746963616c207175616c697479206c6f7373202d2052656a6563742062617463685175616c69747920636f6e6365726e202d2045787065646974652064656c6976657279a26469706673582212206c82631a017e2f2992211147be313e88d227975b4a023d04579db128d70f4c1d64736f6c634300081c0033",
  "linkReferences": {},
  "deployedLinkReferences": {}
}